:1000000014C01BC01AC019C018C017C016C015C034
:1000100014C013C012C011C010C00FC00EC00DC05C
:100020000CC00BC00AC009C008C011241FBECFE518
:10003000D1E0DEBFCDBF10D026C0E2CF8DE387BBBD
:100040000895C49AC39AC29AC09A089508950895CB
:1000500008950895089508958DE387BB18BA2FE396
:1000600082E49FE0215080409040E1F700C0000012
:10007000E8DF2FE382E49FE0215080409040E1F7E9
:0A00800000C00000EBCFF894FFCFA2
:00000001FF
