:020000040000FA
:1000000000000228A430AE000130AF0080300000B4
:100010000000E7200000000083120000C5002F0848
:10002000C400A630C6000130C70083120000440897
:10003000C8004508C900FF30C407031CC5034908B0
:10004000480403199A2804304607C800C901C90D9D
:100050004708C9074808AE004908AF0080300000D3
:100060000000E7200000000083120000CB002F08F2
:10007000CA004608AE004708AF008030000000000C
:10008000E7200000000083120000CD00C9002F0807
:10009000C800CC0002304607C800C901C90D470896
:1000A000C9074808AE004908AF00803000000000D2
:1000B000E7200000000083120000C900CF002F08D5
:1000C000CE00C800831200004A08CE004B08CF00C3
:1000D000FF30CA07031CCB034F084E0403199328B3
:1000E0004C08AE004D08AF00803000000000D42066
:1000F0000000000083120000CE00480883120313A2
:100100008400831383120000491883174E0883125A
:100110000313800083120000CC0A0319CD0AC80A19
:100120000319C90A6228063083120000C6070318A3
:10013000C70A15280000000008290800B3002F088E
:10014000B400B501B6013608803E803E031DAA28E2
:10015000643035020318D3288312051EB9283308EA
:100160008D21B700831285040A30AF00003066216C
:10017000C22834088D21B700831285040A30AF00ED
:1001800000306621B7018312051AB70A3709B70094
:10019000370C031C05120318051618308505B50A1F
:1001A0000319B60AA3280800003A0319DB28803A8D
:1001B0000319E22800342E08840083132F188317B4
:1001C000000808002F088A002E0882000800003A64
:1001D0000319EF28803A0319F928AF0100342E08DB
:1001E000840083132F1883170008AF00840A0008C7
:1001F000080000000000E220AD00AE0FAF03AF0A20
:1002000000000000E220AC002D08AF002C08080020
:100210009C210730B000B1011030310203182E29A3
:1002200000308D21B200831285040A30AF00003007
:1002300066218312851D1E2985010C2983128519CB
:100240000C2930083B21B00031083002B2003B21BC
:10025000B200AF0030089E20B10A0C29083083128A
:1002600085050730AF0007309E200A30AF00003010
:1002700066210C290800B90003303905BA000310C3
:100280003A0CBB003A08BB060130BB050310390C21
:10029000BA003B08B9000310390DBB000310BB0DB9
:1002A0000310BB0D3B08B9003A04BB000F303B05FF
:1002B000B9000A303902031C64290310390CBA0052
:1002C000BB003B03BA00652939080800BD002F08B0
:1002D000BC00BE01BF013D083F02031D71293C085F
:1002E0003E0203188C29FB30C0000430C100FF30EF
:1002F0004007C200FF30C30041080318410FC30785
:100300004208C0004308C10043084204031D772986
:10031000BE0A0319BF0A6B290800B800083A03197E
:1003200096293808093A031998299A2920309B29D7
:1003300021309B2938080800083083168500831275
:10034000850183169F01080001340034AC34013468
:0A035000503400340134003400344E
:00000001FF
