:020000040000FA
:10000000000002288D30AE000130AF0080300000CB
:100010000000E7200000000083120000C4002F0849
:10002000C3008F30C5000130C600831200004308B2
:10003000C7004408C800FF30C307031CC4034808B6
:10004000470403199A2804304507C700C801C80DA2
:100050004608C8074708AE004808AF0080300000D7
:100060000000E7200000000083120000CA002F08F3
:10007000C9004508AE004608AF008030000000000F
:10008000E7200000000083120000CC00C8002F0809
:10009000C700CB0002304507C700C801C80D46089D
:1000A000C8074708AE004808AF00803000000000D5
:1000B000E7200000000083120000C800CE002F08D7
:1000C000CD00C700831200004908CD004A08CE00C9
:1000D000FF30C907031CCA034E084D0403199328B7
:1000E0004B08AE004C08AF00803000000000D42068
:1000F0000000000083120000CD00470883120313A4
:100100008400831383120000481883174D0883125C
:100110000313800083120000CB0A0319CC0AC70A1C
:100120000319C80A6228063083120000C5070318A5
:10013000C60A1528000000005A290800B2002F083E
:10014000B300B401B5013508803E803E031DAA28E6
:10015000643034020318D3288312051EB9283208EC
:100160007E21B600831285040A30AF0000303321AF
:10017000C22833087E21B600831285040A30AF00FE
:1001800000303321B6018312051AB60A3609B600CB
:10019000360C031C05120318051618308505B40A21
:1001A0000319B50AA3280800003A0319DB28803A8E
:1001B0000319E22800342E08840083132F188317B4
:1001C000000808002F088A002E0882000800003A64
:1001D0000319EF28803A0319F928AF0100342E08DB
:1001E000840083132F1883170008AF00840A0008C7
:1001F000080000000000E220AD00AE0FAF03AF0A20
:1002000000000000E220AC002D08AF002C08080020
:10021000B80003303805B9000310390CBA003908AA
:10022000BA060130BA050310380CB9003A08B80014
:100230000310380DBA000310BA0D0310BA0D3A08B6
:10024000B8003904BA000F303A05B8000A30380255
:10025000031C31290310380CB900BA003A03B90065
:10026000322938080800BC002F08BB00BD01BE01C0
:100270003C083E02031D3E293B083D020318592954
:10028000FB30BF000430C000FF303F07C100FF302B
:10029000C20040080318400FC2074108BF004208CF
:1002A000C00042084104031D4429BD0A0319BE0AC7
:1002B0003829080095210730B000B1011030310213
:1002C00003187129831285195E2930080821B000AE
:1002D0003108300208213108AF0030089E20B10AF1
:1002E0005E290830831285050930AF0009309E2051
:1002F0000A30AF00003033215E290800B700083A09
:10030000031987293708093A031989298B292030CD
:100310008C2921308C2937080800013400349C34A2
:1003200001344F34003401340034831685018312C4
:0A033000850183169F0108000034C8
:00000001FF
